:06103A0001F06A1101F053
:10104000120901F05E071290F4E01390F0E001F055
:08105000C40001F05810FBCEB2
:06116A00CEF8A0A02AF05F
:10117000010011902CF011902EF011902FF001F041
:101180000C0F01F0480D01F02C1101F0C214000009
:101190001190E0F81190E1F892A0E1F880A0E1F858
:1011A000D2A0E2F8F2A0E2F882A0E3F8119017F0E2
:1011B000119016F0119015F0119014F0119013F099
:1011C000119012F0119011F0119010F011901FF089
:1011D00011901EF011901DF011901CF011901BF059
:1011E00011901AF0119019F0119018F0B2A017F0A8
:1011F00001001190E5E000001190E0E01190E2E0C4
:101200001190E4E01190EAE01190E1E01190E7E044
:101210001190E8E01190E3E01190E9E01190E6E030
:101220001190EBE001F0420601E01390ECE000E0E9
:101230001390F6E01390F4E01390F2E01390FAE0CC
:0C124000030011900FF001F0B2098EF2D3
:0E09B2005A0011900EF081A00EF0FAC9A500B7
:0609C00011900EF01FFE75
:0E14C20082A002F092A002F0B0A002F0A2A060
:1014D00002F090A003F080A003F0F0A003F008ED6C
:0214E0001FFEED
:040F0C0082A051F27C
:100F100092A051F2A2A051F280A053F280A052F20E
:100F200090A053F290A052F2A0A053F2A0A052F2CF
:100F300082A055F282A054F292A055F292A054F2EF
:100F4000A2A055F2A2A054F282A050F292A050F2B8
:060F5000A2A050F21FFEFA
:080D480082A059F292A059F2B9
:100D5000A2A059F2B2A059F2C2A059F2D2A059F2FF
:100D6000E2A059F2F2A059F280A05BF280A05AF200
:100D700090A05BF290A05AF2A0A05BF2A0A05AF261
:100D8000B0A05BF2B0A05AF2C0A05BF2C0A05AF2D1
:100D9000D0A05BF2D0A05AF2E0A05BF2E0A05AF241
:100DA000F0A05BF2F0A05AF282A05DF282A05CF2A9
:100DB00092A05DF292A05CF2A2A05DF2A2A05CF211
:100DC000B2A05DF2B2A05CF2C2A05DF2C2A05CF281
:100DD000D2A05DF2D2A05CF2E2A05DF2E2A05CF2F1
:100DE000F2A05DF2F2A05CF282A058F292A058F25A
:100DF000A2A058F2B2A058F2C2A058F2D2A058F263
:0A0E0000E2A058F2F2A058F21FFE23
:04112C0080A051F25C
:1011300090A051F2A0A051F280A053F282A052F2EE
:1011400090A053F292A052F2A0A053F2A2A052F2A9
:1011500082A055F282A054F292A055F292A054F2CD
:0A116000A2A055F2A2A054F21FFE57
:02094E000000A7
:100950001190E1E01190E7E01190E8E01190E3E000
:100960001190E9E01190E6E01190EBE000F0420612
:020E38001FFE9B
:020E3A001FFE99
:02092A001FFEAE
:0E064200CEF8E2A058F21090EBE0012003C9C0
:10065000D0A058F202CED2A058F201F02E0610908F
:10066000EAE0012003C9D0A058F202CED2A058F28D
:1006700001F02E061090E4E0012003C9D0A058F24A
:1006800002CED2A058F201F02E061090E2E0012036
:1006900003C9D0A058F202CED2A058F201F02E0623
:1006A0001090E0E0012003C9D0A058F202CED2A001
:1006B00058F201F02E061090E1E0012003C9D0A00D
:1006C00058F202CED2A058F201F02E061090E7E0C8
:1006D000012003C9D0A058F202CED2A058F201F0F6
:1006E0002E061090E6E0012003C9D0A058F202CEF9
:1006F000D2A058F201F02E061090E9E0012003C9C3
:10070000D0A058F202CED2A058F201F02E061090DE
:10071000E5E0012003C9D0A058F202CED2A058F2E1
:1007200001F02E061090E3E0012003C9D0A058F29A
:1007300002CED2A058F201F02E061090E8E001207F
:1007400003C9D0A058F202CED2A058F201F02E0672
:0E075000E0A058F201F02A0901F0B2098EF281
:02062E00CEF804
:10063000F2A058F201F03A0EF0A058F201F03A0E92
:020640008EF238
:040E3C000100119010
:100E4000E5E000001190E0E01190E2E01190E4E0B4
:100E50001190EAE01190E1E01190E7E01190E8E0F4
:100E60001190E3E01190E9E01190E6E01190EBE0E1
:040E700000F0420646
:04124C0001001190FC
:10125000E5E01190E0E000001190E2E01190E4E0A0
:101260001190EAE01190E1E01190E7E01190E8E0E0
:101270001190E3E01190E9E01190E6E01190EBE0CD
:0412800000F0420632
:0C12840001001190E5E000001190E0E096
:1012900001001190E2E000001190E4E01190EAE01A
:1012A0001190E1E01190E7E01190E8E01190E3E0A7
:1012B0001190E9E01190E6E01190EBE000F04206B9
:1012C00001001190E5E000001190E0E01190E2E0F3
:1012D00001001190E4E000001190EAE01190E1E0DB
:1012E0001190E7E01190E8E01190E3E01190E9E05F
:0C12F0001190E6E01190EBE000F04206E7
:0412FC00010011904C
:10130000E5E000001190E0E01190E2E01190E4E0EF
:1013100001001190EAE000001190E1E01190E7E097
:101320001190E8E01190E3E01190E9E01190E6E01F
:081330001190EBE000F0420611
:0C0E740001001190E1E000001190E7E0A7
:100E80001190E8E01190E3E01190E9E01190E6E0C4
:080E90001190EBE000F04206B6
:060E0A0000001190E1E080
:100E100001001190E7E000001190E8E01190E3E09C
:100E20001190E9E01190E6E01190EBE000F042064D
:0813380000001190E1E001004A
:101340001190E7E01190E8E000001190E3E01190C7
:0E135000E9E01190E6E01190EBE000F04206BB
:02135E0000008D
:101360001190E1E001001190E7E000001190E8E049
:1013700001001190E3E000001190E9E01190E6E037
:081380001190EBE000F04206C1
:080E980000001190E5E011904B
:100EA000E0E01190E2E01190E4E01190EAE01190AE
:100EB000E1E01190E7E01190E8E01190E3E011909B
:100EC000E9E001001190E6E000001190EBE000F095
:020ED0004206D8
:0E0ED20000001190E5E01190E0E01190E2E0E8
:100EE0001190E4E01190EAE01190E1E01190E7E068
:100EF0001190E8E01190E3E001001190E9E00000BA
:0C0F00001190E6E01190EBE000F04206DA
:0E09120000001190E0E01190E2E01190E4E0AE
:0A0920001190EAE0C2A058F21FFE99
:080E300000E01390FAE01FFE40
:0C00C400CEF8A1A050F20AC801E0139091
:1000D000F2E001F04E0901F0380EA1A050F2F9C98A
:1000E0001290F2E0017000510FC800E01390F2E0AE
:1000F0001290ECE00F70005102C300F0CE011B9192
:100100001A9008A0840002F001F09C131290F6E00F
:100110000CC91290ECE00F70005102C300F0900384
:100120001B911A9008A0A40002F08EF201F01209AF
:1001300001E01390ECE0E8CE0EE01390ECE0E4CEAA
:1001400006E01390ECE0E0CE06E01390ECE0DCCEAD
:1001500006E01390ECE0D8CE06E01390ECE0D4CEAD
:1001600001F012090EE01390ECE0CECE08E01390FF
:10017000ECE0CACE0BE01390ECE0C6CE0BE013909F
:10018000ECE0C2CE0BE01390ECE0BECE07E01390A3
:10019000ECE000F0080101F0120901F0300E0BE074
:1001A0001390ECE000F0080101F0120901F0300EAC
:1001B0000BE01390ECE000F0080101E01390ECE09C
:1001C00000F008010EE01390ECE000F0080101E0FF
:1001D0001390ECE000F0080100F02A011090F7E025
:1001E00002C900F02A011090F6E0017002C800F088
:1001F0009A03027002C800F0C40300F02A011090B4
:10020000F7E002C900F02A011090F6E0017002C880
:1002100000F0EE03027002C800F0180400F02A019A
:100220001090F7E002C900F02A011090F6E001708A
:0E02300002C800F04204027002C800F06C0424
:02023E0000F0CE
:100240002A011090F7E002C900F02A011090F6E0B0
:10025000017002C800F09604027002C800F0C004E9
:1002600000F02A011090F7E002C900F02A01109076
:10027000F6E0017002C800F0EA04027002C800F063
:10028000140500F02A0107E01390ECE000F02A01C9
:1002900006E01390ECE000F02A011290F6E0017005
:1002A000005102C801F096151290F6E0027000515C
:1002B00002C900F02A0101F0560F00F02A01109047
:1002C000F7E002C900F02A011090F6E0017000F09A
:1002D0002A011090F7E002C900F02A011090F6E020
:1002E000017000F02A011090F7E002C900F02A0125
:1002F0001090F6E0017002C800F03E05027002C8DE
:1003000000F0460500F02A011090F7E002C900F065
:100310002A011090F6E0017002C800F04E0502704C
:1003200002C800F0580500F02A011090F7E002C959
:1003300000F02A011090F6E0017002C800F062059A
:10034000027002C800F06C0500F02A011090F7E07E
:1003500002C900F02A011090F6E0017002C800F016
:100360007605027002C800F0800500F02A011090A6
:10037000F7E002C900F02A011090F6E0017002C80F
:0C03800000F08A05027002C800F094052D
:04038C0000F02A0152
:1003900001E01390ECE000F02A011290ECE081E023
:1003A0001390ECE00570005103C302E01390ECE001
:1003B0000270005102C100F0FA0105E01390ECE078
:1003C00000F0FA011290ECE0FFE01390ECE0057011
:1003D000005103C302E01390ECE00270005102C12F
:1003E00000F0FA0105E01390ECE000F0FA01129041
:1003F000ECE081E01390ECE00570005103C302E0F3
:100400001390ECE00270005102C100F01C0205E004
:100410001390ECE000F01C021290ECE0FFE013906F
:10042000ECE00570005103C302E01390ECE00270B1
:10043000005102C100F01C0205E01390ECE000F056
:100440001C021290ECE081E01390ECE0057000518A
:1004500003C302E01390ECE00270005102C100F00F
:100460003E0205E01390ECE000F03E021290ECE05A
:10047000FFE01390ECE00570005103C302E013901D
:10048000ECE00270005102C100F03E0205E0139062
:10049000ECE000F03E021290ECE081E01390ECE022
:1004A0000570005103C302E01390ECE002700051AC
:1004B00002C100F0600205E01390ECE000F0600281
:1004C0001290ECE0FFE01390ECE00570005103C3E4
:1004D00002E01390ECE00270005102C100F06002F3
:1004E00005E01390ECE000F060021290ECE081E097
:1004F0001390ECE00570005103C302E01390ECE0B0
:100500000270005102C100F0820205E01390ECE09D
:1005100000F082021290ECE0FFE01390ECE0057036
:0A052000005103C302E01390ECE069
:06052A000270005102C145
:1005300000F0820205E01390ECE000F0820201F08E
:10054000AE0700F0040301F0AE0700F004030CE076
:100550001390ECE000F026030DE01390ECE000F0C7
:1005600026030CE01390ECE000F048030DE013903C
:10057000ECE000F048030FE01390ECE000F06A03B9
:100580000EE01390ECE000F06A030FE01390ECE053
:0E05900000F08C030EE01390ECE000F08C0302
:02075E0081A078
:1007600050F209C891A050F202C801E001CE04E0A5
:100770001390F4E01FFE91A050F204C903E013901F
:0C078000F4E01FFE02E01390F4E01FFE06
:04139C00CEF801F096
:1013A0005E071290F4E01292F0E027F004C800E02B
:1013B0001390F6E01ACE1290F6E01390F8E0109039
:1013C000F5E00AC81090F4E0017014C902701CC95D
:1013D000037024C904702CC91290F6E00370005108
:1013E00004C81290F8E01390F6E01290F4E0139025
:1013F000F0E08EF21090F1E0EFC81090F0E0027093
:1014000021C9047023C9E8CE1090F1E0E5C810901E
:10141000F0E001701FC9037021C9DECE1090F1E029
:10142000DBC81090F0E002701DC904701FC9D4CE53
:101430001090F1E0D1C81090F0E001701BC903706A
:101440001DC9CACE02E01390F6E0DDCE01E0139094
:10145000F6E0D9CE01E01390F6E0DFCE02E0139083
:10146000F6E0DBCE01E01390F6E0E1CE02E013906F
:10147000F6E0DDCE02E01390F6E0E3CE01E013905B
:04148000F6E0DFCEE5
:0A159600CEF85EFE1AAEF8E101F097
:1015A000B20992A058F282A058F2C2A058F200E00C
:1015B000FEB0FCB00100A1A058F201C90000010179
:1015C000B1A058F201C900010281012102C901E064
:1015D000FAB00100A1A058F201C800000101B1A0B9
:1015E00058F201C900010281012102C901E0FAB0EB
:1015F0000100A1A058F201C900000101B1A058F2F8
:1016000001C800010281012102C901E0FAB0010014
:10161000A1A058F201C800000101B1A058F201C810
:1016200000010281012102C901E0FAB0C0A058F214
:1016300000E01ACE80A058F202CE81E0FEB07EB06B
:101640001292FCE027F0F9C100E0FEB082A058F24F
:1016500002CE81E0FCB07CB01292FCE027F0F9C130
:1016600000E0FCB078B081E0F8B07AB227F0E2C1D7
:0A167000C2A058F2EAA11EFE8EF29D
:0A0F5600CEF85EFE1AAEF8E101F0DD
:100F6000B20990A058F282A058F2C2A058F200E054
:100F7000FEB0FCB00100A1A058F201C900000101BF
:100F8000B1A058F201C900010281012102C901E0AA
:100F9000FAB00100A1A058F201C800000101B1A0FF
:100FA00058F201C900010281012102C901E0FAB031
:100FB0000100A1A058F201C900000101B1A058F23E
:100FC00001C800010281012102C901E0FAB001005B
:100FD000A1A058F201C800000101B1A058F201C857
:100FE00000010281012102C901E0FAB0C0A058F25B
:100FF00000E01ACE80A058F202CE81E0FEB07EB0B2
:101000001292FEE027F0F9C100E0FEB082A058F293
:1010100002CE81E0FCB07CB01292FEE027F0F9C174
:1010200000E0FCB078B081E0F8B07AB227F0E2C11D
:0A103000C2A058F2EAA11EFE8EF2E3
:0207AE00CEF883
:1007B0005EFE1AAEF0E16EF401F0B209C0A058F28C
:1007C00000E0F6B08800130176B228803981F4B0D9
:1007D00080A058F202CE81E0F2B072B074B227F07D
:1007E000FAC100E0F2B082A058F202CE81E0F2B08D
:1007F00074B227F0FBC100E0F2B076B0FA100061ED
:1008000081E0F6B011701251DDC177000101F0B046
:1008100000F0F80801F09C131290F6E0017000510E
:1008200027C870B000E26EF0FCE101F04A0B3EF028
:10083000EBF0F8FF37907EF036907EF07B001401ED
:10084000AE024703E1047A0574063F077EF001F02B
:100850007C0908E101F0881308E101F0C60904E110
:100860002EF0F0B00270005130C002E0F0B02DCE9A
:10087000027000512AC870B000E26EF0FCE101F095
:100880004A0B3EF0EBF0F8FF37907EF036907EF0AA
:100890007B001401AE024703E1047A0574063F07AA
:1008A0007EF001F07C0908E101F0F00908E101F0B7
:1008B000C60904E12EF0F0B000E2E870FD510052EC
:1008C000005303C7E800FD01F0B080A058F202CE4B
:1008D00081E0F2B072B070B227F0FAC100E0F2B07D
:1008E00082A058F202CE81E0F2B070B227F0FBC1D4
:1008F00000E0F2B001F0B209A1A050F202C900F08C
:100900001408C2A058F282A058F22EF4EAA11EFEEA
:020910008EF265
:08105800CEF81290ECE00F70DD
:10106000005102C300F024111B911A9008A0060041
:1010700002F08EF201F04E09FCCE01F03C0EF9CEEA
:1010800001F04C1292A058F2A2A058F2B2A058F26D
:10109000F0CE01F0841292A058F2A0A058F2B2A0B3
:1010A00058F2E7CE01F0C01292A058F2A2A058F276
:1010B000B0A058F2DECE01F0FC1292A058F2A0A02F
:1010C00058F2B0A058F2D5CE01F0740EC2A058F27A
:1010D000D0CE01F00A0EC2A058F2CBCE01F03813E8
:1010E000C8CE01F0381301F09615C3CE01F03813C5
:1010F00001F0560F00F07210C2A058F201F05E131A
:1011000000F0721001F05E1300F0721001F05E1337
:1011100000F0721001F0980E00F0721001F0D20E83
:0C11200000F0721001F04E0900F0721097
:020002009E0559
:0C0084002C0138014001480150015801D6
:1000900060016C0174017C0184018C019601A8014E
:1000A000BA01C401D801DC01FE012002420264024F
:1000B000860290029A02BE02D202E60208032A03D6
:0400C0004C036E037C
:0A00060074107A1080109210A410FC
:10001000B610C810D210DC10E210EC10F810041169
:060020000C1114111C116B
:0A0066000000000000000000000090
:0A007000000000000000A00FA00F28
:02000000E0E03E
:02000400A00555
:02059E0001CE8C
:1005A000FFCE00E000E200E400E60008E0098AF087
:1005B000579088E8E179FCC10078FAC15A0CA50D82
:1005C000119C0EF081A00EF0FBC9119D0EF0000AE7
:1005D0000CF07A00AF905290FF7002C8FF7120C9F2
:1005E000AF905292AF905294AF905096AF90509778
:1005F00080E4F0C901A20BC801A409C86F90029859
:1006000082E07F90239882E2FEE4F8C8E3CE6F9008
:10061000009881E07F90219881E2FFE4F8C8DACE6B
:0E06200001F08C070000119000F000F03A107D
:02078C001FFE4E
:06007A006600ECE014003A
:0200800000007E
:02008200FFFF7E
:1017E000FFFFFFFFFFFFFFFFFFFFFFFFFFFFFFFF09
:1017F000FFFFFFFFFFFFFFFFFFFFFFFFFFFFFFFFF9
:081388006EFC03AD1AAE4BDC54
:0C139000804CCBDCDBA02EFC00F0F00950
:1009F000CEF97EF07EF803A04EF0F4E11AAEEBF0F3
:100A00002A0001F0D60CF4E11AAEEBF02E0001F052
:100A1000D60C01F0500A36E801F0E21418E18EF429
:060A20003EF83EF08EF3EB
:0A002600680A480B300B300B300B5A
:10003000340B300B300B480B480B480B480B480B6C
:06004000480B300B340BED
:100A5000CEF8E5FC8CEE4BD82A980AB231881A9869
:100A6000000988A8260082F048BA08B8888A998BBD
:100A700006C4C5F0E5FC05FEFFEAFF4AFF4B407ADD
:100A8000005B55C2CAF03690A08A02C901F02C0959
:100A900065F845F625F405F248BA0ADD4ADCD78C3C
:100AA00017C8E29CC6F242BCC684D68544BCC68642
:100AB000D68746BCC688D68934C01D921D931D9426
:100AC0001D951D961D971D981C9970A981EA29CE28
:100AD000E29C288C398DC5F242BC498C598DC5F4F5
:100AE00044BC698C798DC5F646BC898C998DC5F856
:100AF00013C0FF42FF43FF44FF45FF46FF47FF4847
:100B0000FF4981E206C00064006500660067006876
:100B100000694ADC804CCADC000D01F08E07017DC3
:100B200004C94ABC01F070098EF2000CCABC8EF2F6
:100B3000C5FE8EF24AD02480FAC901A303C802017F
:0A0B4000CBD18EF20000CAD08EF275
:04092C00070BB88A73
:1009300001C4A18BBD80BD81BD82BD83BD84BD8549
:0E094000BD86BC87B88AF6C4F97AF3C61FFEDE
:0C097000EAF0539255945598339C1FFEFA
:0E14E200CEF84ADC4BDD1AC8EAF05690329A7A
:1014F000017AFC5B08C772A701F07415007A045BDF
:1015000016C500E230CEFE1A036BC07AFF5B09C736
:101510005F8A01F02C0900EA01F074150ACE11ADC2
:101520001FC8000100E200E4000600EA0CCEFF1A2A
:10153000036B3D913D923D933D943D953D963C9787
:101540004B9B4A9A738AC38B1AAE86FEEBF002005D
:10155000519151925193519451955196339A8EF2E3
:1015600001ADCFC87FE225F420812086F00A7F0BF1
:10157000238AE9CE21A10EC9108D0B2DD3800AC973
:10158000081100620063006400650066006702CC19
:06159000000781EA1FFEC6
:02078E00400128
:1007900071A90CC8FFEA1B991B981B971B961B9508
:0E07A0001B941B931A92FF11F3C8010D1FFE4C
:0A0CD600CEF800EC509350945095B6
:100CE0005096509750985099309B908A3B993B98DA
:100CF0003B973B963B953B943A93000272A99081B7
:100D000083817381638153814381338172AB01C9D4
:100D1000800C4D9A4C9BFF7A075B08C9A5FA0BC95A
:100D200070A9011AFC6B01F070098EF2020D0071BE
:100D3000FAC8030DF8CE007102C8010DF4CE021AF4
:080D4000FC6B01F08E07EFCE01
:060B4A00CEF97EF07EF8FA
:100B500003A04EF0F4E11AAEEBF02600800C01F099
:100B6000260A22E801F0E2140CE18EF43EF83EF091
:020B70008EF302
:0A0A2600CEF852963298000D928C23
:100A300007CCFF46FF47FF48FF4981E60068006991
:100A400000E200E41FEA01F08E0701F070098EF267
:04097C00CEF97EF042
:100980007EF803A04EF0F4E11AAEEBF02A0001F07D
:10099000D60CF4E11AAEEBF02E0001F0D60C01F00B
:1009A000720B36E801F0E21418E18EF43EF83EF0E6
:0209B0008EF3C4
:0A0046008C0B7A0C760C7A0C7C0C03
:100050007C0C760C820C780C780C780C780C7C0C70
:06006000820C760C7C0C02
:0E0B7200CEF8E5FC8CEE4AB230882A980AB024
:100B800011881A98000988A8460082F000E400E65F
:100B90002480CAD0C290E29201F0AC0C25F8C29039
:100BA00042B201F0AC0C01F0880C02B0E29201F00C
:100BB000AC0C01F0880C00E8C29044B201F0AC0C1F
:100BC00001F0940C02B042B201F0AC0C01F0940CB4
:100BD00004B0E29201F0AC0C01F0940C00E4C2907D
:100BE00046B201F0AC0C01F0A00C02B044B201F02E
:100BF000AC0C01F0A00C04B042B201F0AC0C01F05E
:100C0000A00C06B0E29201F0AC0C01F0A00C00E6E2
:100C100002B046B201F0AC0C01F0880C04B044B252
:100C200001F0AC0C01F0880C06B042B201F0AC0C43
:100C300001F0880C85FA00E804B046B201F0AC0C73
:100C400001F0940C06B044B201F0AC0C01F0940C2D
:100C500006B046B201F0AC0C06F626883689A5F23D
:100C600048BA08BC80EDC68AD68B01F08E074ABC14
:100C700001F070098EF2C5FE8EF2C5FE2480CAD046
:100C80008EF20200CBD08EF206F8268436850066FE
:100C900000671FFE06F426863687006800691FFE7F
:0C0CA00006F626883689006400651FFEF9
:0A09C600CEF97EF07EF803A04EF09B
:1009D000F4E11AAEEBF0220001F0D60C01F0841421
:1009E0000CE11AAEDAB0DCB28EF43EF83EF08EF3D3
:0C148400CEF84BDB017B16C217C9EAF062
:101490005690529AC1EA10C4C17AFF5B0FC55F8AA9
:1014A00001F02C09309C07CCFF40FF41FF42FF4375
:1014B00081E0006200638EF27FE001CE00E005F281
:0214C0008EF2AA
:040CAC006EF45EF88C
:100CB00000E8008624F6008434F4418756881084C6
:100CC00024F4418756880069108234F286F265F078
:060CD0001EF82EF41FFEC9
:00000001FF
